:020000040000FA
:100000000C9462000C948A000C948A000C943908B9
:100010000C9439080C9439080C948A000C948A00CA
:100020000C948A000C948A000C948A000C948A0028
:100030000C948A000C948A000C948A000C948A0018
:100040000C94EF070C948A000C94BD070C9497074E
:100050000C948A000C948A000C948A000C948A00F8
:100060000C9443080C948A00000000002400270030
:100070002A0000000000250028002B0000000008D6
:10008000000201000003040700000000000000005F
:1000900000000000230026002900040404040404D6
:1000A0000404020202020202030303030303010227
:1000B00004081020408001020408102001020408F6
:1000C0001020620911241FBECFEFD8E0DEBFCDBFE4
:1000D00011E0A0E0B1E0E8EDF2E202C005900D927F
:1000E000A23DB107D9F723E0A2EDB1E001C01D9216
:1000F000AF37B207E1F710E0C2E6D0E004C02197C5
:10010000FE010E946411C136D107C9F70E94EC09B3
:100110000C946A110C940000CF92DF92EF92FF9240
:10012000CF93DF93B0915703A0E08111AB2F809163
:10013000580390E0880F991FAC0140575F4FC09063
:100140005D03D0905E03E0905F03F090600330E0C9
:1001500020E0FA01C591D491E881B90190E080E0F6
:10016000EB23EA130AC02F5F3F4F6C157D058E0508
:100170009F0578F36FEF7FEFCB01DF91CF91FF9079
:10018000EF90DF90CF90089508950895AF92BF92B9
:10019000CF92DF92EF92FF920F931F93CF93DF9353
:1001A0006C017B018B01040F151FEB015E01AE1882
:1001B000BF08C017D10759F06991D601ED91FC91A4
:1001C0000190F081E02DC6010995892B79F7C501D1
:1001D000DF91CF911F910F91FF90EF90DF90CF9023
:1001E000BF90AF900895FC01538D448D252F30E0D2
:1001F000842F90E0821B930B541710F0CF96089534
:1002000001970895FC01918D828D981761F0A28D60
:10021000AE0FBF2FB11D5D968C91928D9F5F9F7326
:10022000928F90E008958FEF9FEF0895FC01918DDC
:10023000828D981731F0828DE80FF11D858D90E049
:1002400008958FEF9FEF0895FC01918D228D892FE6
:1002500090E0805C9F4F821B91098F7399270895CE
:1002600083EA92E00E94240121E0892B09F420E036
:10027000822F089580E090E0892B29F00E943001C0
:1002800081110C9400000895FC01A48DA80FB92FD2
:10029000B11DA35ABF4F2C91848D90E001968F73AE
:1002A0009927848FA689B7892C93A089B1898C91CD
:1002B000837080648C93938D848D981306C002881C
:1002C000F389E02D80818F7D80830895EF92FF92E6
:1002D0000F931F93CF93DF93EC0181E0888F9B8D69
:1002E0008C8D98131AC0E889F989808185FF15C023
:1002F0009FB7F894EE89FF896083E889F989808146
:100300008370806480839FBF81E090E0DF91CF9114
:100310001F910F91FF90EF900895F62E0B8D10E036
:100320000F5F1F4F0F731127E02E8C8D8E110CC0A5
:100330000FB607FCFACFE889F989808185FFF5CFF0
:10034000CE010E944401F1CFEB8DEC0FFD2FF11D8A
:10035000E35AFF4FF0829FB7F8940B8FEA89FB892D
:1003600080818062CFCFCF93DF93EC01888D88238B
:10037000B9F0AA89BB89E889F9898C9185FD03C008
:10038000808186FD0DC00FB607FCF7CF8C9185FFED
:10039000F2CF808185FFEDCFCE010E944401E9CFED
:1003A000DF91CF91089590E0FC01E458FF4F249134
:1003B000FC01E255FF4F3491FC01E656FF4FE491FA
:1003C000EE23C9F0222339F0233001F1A8F42130C3
:1003D00019F1223029F1F0E0EE0FFF1FEE58FF4F28
:1003E000A591B4918FB7F894EC91611126C0309526
:1003F0003E233C938FBF08952730A9F02830C9F0E1
:10040000243049F7809180008F7D03C08091800067
:100410008F7780938000DFCF84B58F7784BDDBCF6B
:1004200084B58F7DFBCF8091B0008F778093B00033
:10043000D2CF8091B0008F7DF9CF3E2BDACFCF9312
:10044000DF9390E0FC01E255FF4F249186569F4FC9
:10045000FC0184918823D1F090E0880F991FFC0162
:10046000E859FF4FA591B491FC01EE58FF4FC5919B
:10047000D491623071F49FB7F8943C91822F8095AB
:1004800083238C93E8812E2B28839FBFDF91CF910C
:1004900008958FB7F894EC912E2B2C938FBFF6CF45
:1004A0003FB7F8948091870290918802A0918902C9
:1004B000B0918A0226B5A89B05C02F3F19F001967E
:1004C000A11DB11D3FBFBA2FA92F982F8827BC01AE
:1004D000CD01620F711D811D911D42E0660F771FD6
:1004E000881F991F4A95D1F708958F929F92AF92D6
:1004F000BF92CF92DF92EF92FF924B015C010E947C
:1005000050026B017C010E9450026C197D098E091A
:100510009F09683E734081059105A8F321E0821A86
:100520009108A108B10888EEC80E83E0D81EE11C2E
:10053000F11C81149104A104B10429F7FF90EF90FC
:10054000DF90CF90BF90AF909F908F900895CF9203
:10055000DF92EF92FF920F931F93CF93DF93CDB76C
:10056000DEB7C054D1400FB6F894DEBF0FBECDBF8A
:100570002FB7F89480914C0390914D03A0914E03B6
:10058000B0914F032FBF4091590350915A0360918E
:100590005B0370915C038C019D01041B150B260B02
:1005A000370BB901A801403D57406105710590F432
:1005B00080916103C05CDE4F0FB6F894DEBF0FBEC2
:1005C000CDBFDF91CF911F910F91FF90EF90DF9002
:1005D000CF9008958093590390935A03A0935B039F
:1005E000B0935C0310925403109253031092520381
:1005F000109251031092500362E0809155030E94C3
:100600001F0261E070E080E090E00E94750261E00E
:10061000809155030E941F0260E0809155030E9463
:10062000D301809156038551823020F58BE291E110
:100630000197F1F762E0809155030E941F028091BB
:10064000620390E08230910538F0880F991F880F7F
:10065000991F05970197F1F7F89480E00E948C00AC
:100660006F3F7F4F8F4F9F4F61F4109261037894DB
:1006700080E0A0CF64E170E080E090E00E9475022D
:10068000D9CF81E00E948C006F3F7F4F8F4F9F4FEB
:1006900061F38E010F5F1F4F6E018FEBC81A8EEF53
:1006A000D80A780180E00E948C00F7016083718392
:1006B0008283938381E00E948C00F70164837583B9
:1006C00086839783F8E0EF0EF11CEC14FD0451F7DC
:1006D000789430E020E0F801C080D180E280F3809F
:1006E0004481558166817781FFEFCF16DF06EF06E3
:1006F000FF0631F04F3F8FEF58076807780719F46E
:1007000010926103B5CFF90183E0F595E7958A95DD
:10071000E1F7E05BFC4F8081880FC416D506E60642
:10072000F70610F180832F5F3F4F085F1F4F28327D
:10073000310589F640915403209150038091510373
:10074000280F3327331F80915203280F311D8091CA
:100750005303820F932F911D99274817190681F68D
:1007600081E08093610326CF8160DCCF08952091E2
:100770001302260F3327331F21323105ECF4209169
:100780005C02FC0190E080E0243069F082E0089592
:10079000A09113022191AC014D505E4FA40FB52FD3
:1007A000B11D2C930196861798F380911302680F60
:1007B0006093130280E0089581E0089510925C0236
:1007C00081E080935B021092360261E082E10E9438
:1007D000D30161E083E10E94D301E9EBF0E0808185
:1007E0008E7F808380818D7F808388E48093B800B2
:1007F00085E48093BC000895CF93DF9391E09093BC
:10080000F2018823B9F0C091B800D091BA0080916C
:10081000BC008A7B8093BC0060E082E10E94D3012F
:1008200060E083E10E94D3010E94DE03D093BA000E
:10083000C093B800DF91CF9108950895E09192029E
:1008400080919102E81730F4F0E0EE52FE4F808183
:1008500090E008958FEF9FEF08959091920280911C
:1008600091022FEF3FEF981748F4E92FF0E0EE5296
:10087000FE4F208130E09F5F90939202C90108955E
:100880008091910290919202891B990B0895CF92C9
:10089000DF92EF92FF920F931F93CF93DF937C0130
:1008A000CB018A0120916202222389F0EB016B01C6
:1008B000C40ED51ECC15DD0569F06991D701ED9107
:1008C000FC910190F081E02DC7010995F3CF642FD1
:1008D0000E94B703C801DF91CF911F910F91FF9044
:1008E000EF90DF90CF900895CF93DF931F92CDB715
:1008F000DEB76983209162022223F9F020918F02F2
:10090000203258F021E030E0FC013383228390E074
:1009100080E00F90DF91CF91089580919002E82FB1
:10092000F0E0ED59FD4F998190838F5F80939002A5
:1009300080938F0281E090E0ECCF61E0CE010196E0
:100940000E94B703F7CFCF92DF92EF92FF920F93FF
:100950001F93CF93DF93FC01C48121E020936202B7
:10096000C09383021092900210928F028385682BAD
:1009700080E493E00E947404D0918F02D13208F099
:1009800092C00E9450026B017C0180915C02811137
:1009900065C082E080935C0281E080935B028FEF10
:1009A00080935A0210925902D0935802A3E6B2E003
:1009B000E8E3F2E080E0D81385C01092370280911E
:1009C0003702CC0FC82BC09337028091360281309A
:1009D00009F07CC0109236020E9450026B017C012B
:1009E000809137028093BB0080915E0290915F02FC
:1009F000A0916002B0916102892B8A2B8B2B99F018
:100A00000E94500200915E0210915F0220916002EC
:100A1000309161026C197D098E099F09061717072D
:100A200028073907E0F18091BC0083FDD9CF85EC20
:100A30008093BC000E9450026B017C0180915C029B
:100A4000823009F445C080915A028F3F61F1809154
:100A50005A02803241F180915A0225C080915E0293
:100A600090915F02A0916002B0916102892B8A2B64
:100A70008B2B09F48ACF0E94500200915E021091E4
:100A80005F0220916002309161026C197D098E092C
:100A90009F09061717072807390708F076CF8091B6
:100AA0005D020E94FC031092900210928F0210923D
:100AB0006202DF91CF911F910F91FF90EF90DF9035
:100AC000CF9008959D9191938F5F75CF85EEB0CFB4
:100AD00080915E0290915F02A0916002B0916102EC
:100AE000892B8A2B8B2B09F4A9CF0E9450020091ED
:100AF0005E0210915F0220916002309161026C19D8
:100B00007D098E099F09061717072807390708F07E
:100B100095CFC5CF90E080E00895FB0101900020C3
:100B2000E9F73197AF01461B570BDC01ED91FC91C2
:100B30000280F381E02D09948F929F92AF92BF9231
:100B4000EF92FF920F931F93CF93DF93CDB7DEB752
:100B5000A1970FB6F894DEBF0FBECDBF7C01FA019E
:100B6000CB0119A2223008F42AE08E010F5D1F4F3D
:100B7000822E912CB12CA12CBF01A50194010E94C1
:100B8000F70EF901CA016A300CF5605DD8016E9369
:100B90008D01232B242B252B79F790E080E01097F3
:100BA00021F0BD01C7010E948D05A1960FB6F894F2
:100BB000DEBF0FBECDBFDF91CF911F910F91FF9090
:100BC000EF90BF90AF909F908F900895695CDECFBB
:100BD000CF93DF93BC0183EA92E00E948D05EC0184
:100BE0006CE371E083EA92E00E948D058C0F9D1FFB
:100BF000DF91CF9108950C948D052F923F924F92E3
:100C00005F926F927F928F929F92AF92BF92CF929C
:100C1000DF92EF92FF921F93CF93DF93EC016A0173
:100C20007B01722EAB019601CB01B6010E945F11D0
:100C30006FE371E0811126C046015701E894B7F8CF
:100C40002FEF3FEF4FE75FE7C501B4010E945F114F
:100C500081110CC02FEF3FEF4FE75FE7C501B401F3
:100C60000E94950F63E471E0181664F02FEF3FEFD8
:100C70004FE75FE4C701B6010E94ED101816B4F407
:100C800067E471E0CE01DF91CF911F91FF90EF906B
:100C9000DF90CF90BF90AF909F908F907F906F909C
:100CA0005F904F903F902F900C948D052FEF3FEF6A
:100CB0004FE75FECC701B6010E94950F87FDE0CFBB
:100CC00020E030E0A901C701B6010E94950F312C48
:100CD000212C87FF0DC0E881F9810190F081E02D82
:100CE0006DE2CE0109951C01F7FAF094F7F8F09443
:100CF00010E060E070E080E09FE3711641F020E0DA
:100D000030E040E251E40E949A0F1F5FF6CFA70146
:100D100096010E94290F2B013C010E940C104B01EF
:100D20005C012AE0BC01A401CE010E949C057C016B
:100D3000E20CF31C1123E1F1C501B4010E943B1048
:100D40009B01AC01C301B2010E94280F4B015C0161
:100D5000E881F9810190F081E02D6EE2CE010995E4
:100D6000E80EF91E115020F120E030E040E251E49D
:100D7000C501B4010E94F2102B013C010E940C102D
:100D80004B01B12CA12C2AE0B501A401CE010E9497
:100D90009C05E80EF91EC501B4010E943B109B01A1
:100DA000AC01C301B2010E94280F4B015C01DACFF4
:100DB000C701DF91CF911F91FF90EF90DF90CF900F
:100DC000BF90AF909F908F907F906F905F904F906B
:100DD0003F902F9008950F931F93CF938C01C62FB0
:100DE0000E94A3046C2F6460C8010E94A3046C2FAE
:100DF0006B7FC8010E94A30483EC90E00197F1F798
:100E0000CF911F910F9108950F931F93CF93DF936D
:100E10008C01D62FC42F607F642B0E94EB0680E1EB
:100E2000D89FB00111246C2BC801DF91CF911F9185
:100E30000F910C94EB06CF93DF93CDB7DEB72897D5
:100E40000FB6F894DEBF0FBECDBF98E0E4E0F1E04E
:100E5000DE01119601900D929A95E1F790916C0345
:100E6000961708F46FEF262F30E0220F331F41E072
:100E700050E04C0F5D1F240F351FF9016081680F92
:100E8000606840E083E693E028960FB6F894DEBFF2
:100E90000FBECDBFDF91CF910C94040740E061E01D
:100EA00083E693E00E9404078BE39FE10197F1F74B
:100EB000089541E00E94040781E090E0089585EDE7
:100EC0008093BC0080915E0290915F02A0916002CD
:100ED000B09161020796A11DB11D23E0B695A795BB
:100EE000979587952A95D1F72091BC0024FD03C0E2
:100EF00010925C02089540915E0250915F026091F1
:100F0000600270916102452B462B472B69F30097D5
:100F1000A105B10541F025E32A95F1F700000197FD
:100F2000A109B109E1CF80915D020C94FC031F92ED
:100F30000F920FB60F9211242F933F934F935F930D
:100F40006F937F938F939F93AF93BF93EF93FF9391
:100F500083EA92E00E944401FF91EF91BF91AF912B
:100F60009F918F917F916F915F914F913F912F91C1
:100F70000F900FBE0F901F9018951F920F920FB6F3
:100F80000F9211242F938F939F93EF93FF93E091F0
:100F9000B302F091B4028081E091B902F091BA02FB
:100FA00082FD1BC090818091BC028F5F8F73209166
:100FB000BD02821741F0E091BC02F0E0ED55FD4F1B
:100FC000958F8093BC02FF91EF919F918F912F910C
:100FD0000F900FBE0F901F9018958081F4CF1F9235
:100FE0000F920FB60F9211242F933F938F939F93DD
:100FF000AF93BF9380914C0390914D03A0914E030A
:10100000B0914F033091860223E0230F2D3758F51E
:101010000196A11DB11D2093860280934C039093ED
:101020004D03A0934E03B0934F038091870290919C
:101030008802A0918902B0918A020196A11DB11D7A
:101040008093870290938802A0938902B0938A02CA
:10105000BF91AF919F918F913F912F910F900FBEB4
:101060000F901F90189526E8230F0296A11DB11D21
:10107000D2CF1F920F920FB60F9211240F900FBE76
:101080000F901F9018951F920F920FB60F92112478
:101090002F933F934F935F936F937F938F939F9380
:1010A000AF93BF93EF93FF938091B900887F803611
:1010B00009F44AC0F0F5883209F4A7C018F5803168
:1010C00009F49BC0B8F4882309F4F9C0883009F406
:1010D00094C0FF91EF91BF91AF919F918F917F91BC
:1010E0006F915F914F913F912F910F900FBE0F9095
:1010F0001F901895883109F488C0803251F7809389
:101100005A0214C0803409F49DC040F48033B9F30E
:101110008833F9F680935A0285ECB0C0803509F423
:1011200085C0883509F496C0883499F60E945F0717
:10113000D0CF883909F48CC038F5883729F050F4BD
:10114000883611F0803729F683E080935C02109294
:10115000350257C0883809F47BC0803919F08038CF
:1011600009F0B7CF80913502803208F071C0E0916C
:10117000350281E08E0F809335028091BB00F0E054
:10118000EB5EFD4F80833DC0803B39F0E0F4803A58
:1011900009F479C0883A09F09CCF84E080935C021E
:1011A0001092140210921302E0918D02F0918E02BF
:1011B00009958091130281110FC081E08093130281
:1011C0001092F30109C0803C09F4A6CF883C09F4D1
:1011D000A3CF883B09F07DCFE091140281E08E0F10
:1011E00080931402F0E0ED50FE4F80818093BB00AD
:1011F000909114028091130229C08091370280934C
:10120000BB0085EC8093BC0064CF90915902809123
:101210005802981758F5E091590281E08E0F80939B
:101220005902F0E0E85CFD4F8081E9CFE09159027E
:1012300081E08E0F809359028091BB00F0E0E85C62
:10124000FD4F808390915902809158029817C8F2FF
:1012500085E8D8CFE091590281E08E0F8093590242
:101260008091BB00F0E0E85CFD4F808380915B02E1
:1012700081115CCF81E08093360284EA8093BC00C8
:1012800010925C0226CF85EC8093BC0010925C0229
:1012900080913502803230F4E0913502F0E0EB5E6F
:1012A000FD4F10826091350270E0E0918B02F09169
:1012B0008C0285E192E00995109235020ACF1092D6
:1012C0005A0234CF0F931F93E3EAF2E013821282A3
:1012D00088EE93E0A0E0B0E084839583A683B78393
:1012E00020E131E03183208325EC30E0358724870D
:1012F00024EC30E03787268720EC30E0318B208BE0
:1013000021EC30E0338B228B22EC30E0358B248BC8
:1013100026EC30E0378B268B118E128E138E148EB6
:10132000E0E4F3E01382128284839583A683B7837B
:1013300082E291E091838083EFE6F3E010861186EC
:101340001286138614861586168617868FB7F8942C
:1013500000914C0310914D0320914E0330914F03A7
:101360008FBF0083118322833383148215821682F8
:101370001782E3E6F3E01382128284E391E0918323
:10138000808380E2848380E1808782E08187128687
:1013900098E09387A0E5B3E015968C9315978BE0C2
:1013A00016968C931697E0EBF0E0E4911796EC9389
:1013B0001797ECE9F0E0E4911896EC93189740E861
:1013C0005EE360E070E01D964D935D936D937C93BA
:1013D00050971F910F910895789484B5826084BDD1
:1013E00084B5816084BD85B5826085BD85B5816029
:1013F00085BD80916E00816080936E0010928100A7
:101400008091810082608093810080918100816061
:101410008093810080918000816080938000809122
:10142000B10084608093B1008091B00081608093AE
:10143000B00080917A00846080937A0080917A0075
:10144000826080937A0080917A00816080937A0034
:1014500080917A00806880937A001092C100109287
:101460009202109291021092900210928F020E94AA
:10147000DE0384EC90E090938E0280938D0285ECE5
:1014800090E090938C0280938B02E091B302F091F4
:10149000B40282E08083E091AF02F091B00210824A
:1014A000E091B102F091B2028FEC80831092BB0206
:1014B000E091B702F091B80286E08083E091B50236
:1014C000F091B602808180618083E091B502F09155
:1014D000B602808188608083E091B502F091B60207
:1014E000808180688083E091B502F091B6028081AE
:1014F0008F7D80830E94DE031092680380916C03CD
:10150000823018F098E09093680390916D039923CE
:1015100039F0813029F480916803846080936803F6
:1015200062E370E080E090E00E94750260916E03DB
:1015300083E693E00E94A30468EE73E080E090E00D
:101540000E94750260E383E693E00E94EB06CBE421
:10155000D6E4CE010197F1F760E383E693E00E94C1
:10156000EB062197F1F760E383E693E00E94EB0638
:1015700083E592E00197F1F760E283E693E00E9451
:10158000EB0660916803606240E083E693E00E94AE
:10159000040784E08093690340E06CE083E693E015
:1015A0000E9404070E944E0782E080936A0340E095
:1015B00066E083E693E00E94040740E062E083E691
:1015C00093E00E9404078BE39FE10197F1F788E025
:1015D00080936E0360E083E693E00E94A30462E0E0
:1015E000809155030E941F022FB7F89480914C03FD
:1015F00090914D03A0914E03B0914F032FBF805D9A
:101600009740A109B1098093590390935A03A0937D
:101610005B03B0935C0387E3809362030E944E07F1
:1016200060E080E00E941B076CE471E083E693E0D9
:101630000E94FB0561E087E00E941F0261E088E0F4
:101640000E941F0261E089E00E941F0233E3432EE3
:1016500033E9532E38E1632E33E4732EC0E0D0E03B
:1016600084E19EEAA7E4BFE380939F029093A002E7
:10167000A093A102B093A2028CEE91E5ACE2B1E49A
:1016800080939B0290939C02A0939D02B0939E0234
:1016900080E090E8A3EBB2E48093970290939802E5
:1016A000A0939902B0939A024092930250929402AE
:1016B00060929502709296020E944E0760E080E070
:1016C0000E941B076BE471E083E693E00E94FB0538
:1016D00060ED77E080E090E00E9475020E944E0786
:1016E00060E080E00E941B076BE571E083E693E019
:1016F0000E94FB0561E085E00E941B076BE671E03C
:1017000083E693E00E94FB0561E089E00E941B07ED
:1017100060E771E083E693E00E94FB0560ED77E00F
:1017200080E090E00E94750260E080E00E941B076C
:1017300063E771E083E693E00E94FB0561E085E0EA
:101740000E941B0765E871E083E693E00E94FB05B9
:1017500061E089E00E941B076AE871E083E693E09C
:101760000E94FB0560ED77E080E090E00E9475024A
:101770000E944E0760E080E00E941B076DE871E068
:1017800083E693E00E94FB0561E085E00E941B0771
:1017900040919702509198026091990270919A023B
:1017A00022E083E693E00E94FD0561E089E00E946B
:1017B0001B076EE971E083E693E00E94FB0560ED94
:1017C00077E080E090E00E9475020E944E0760E0A2
:1017D00080E00E941B0760EA71E083E693E00E94CC
:1017E000FB0561E085E00E941B0740919302509148
:1017F0009402609195027091960222E083E693E054
:101800000E94FD0561E089E00E941B076EEA71E01D
:1018100083E693E00E94FB0560ED77E080E090E0D6
:101820000E9475020E944E0760E080E00E941B0744
:1018300061EB71E083E693E00E94FB0561E085E0E7
:101840000E941B0740919B0250919C0260919D0257
:1018500070919E0222E083E693E00E94FD0561E024
:1018600089E00E941B076FEB71E083E693E00E9422
:10187000FB0560ED77E080E090E00E9475020E9439
:101880004E0760E080E00E941B0761EC71E083E698
:1018900093E00E94FB0561E085E00E941B074091F8
:1018A0009F025091A0026091A1027091A20222E0D9
:1018B00083E693E00E94FD0561E089E00E941B073A
:1018C0006FEC71E083E693E00E94FB0560ED77E04A
:1018D00080E090E00E9475020E94A702882349F0F0
:1018E000809156038B3028F08D3050F08551823036
:1018F000C8F1812C912C20ECA22E2FE7B22E1EC015
:101900006091510370E090E080E00E943D102DEC6A
:101910003CEC4CEC5DE30E94F2106B017C016091A9
:10192000500370E090E080E00E943D109B01AC010C
:10193000C701B6010E94290F4B015C010E94A7025A
:10194000882309F444C1809156038C3009F44AC1BC
:10195000D8F48B3091F1C12CD12C80ECE82E8FE79C
:10196000F82E55C060915003709151037627672778
:10197000762790E080E00E943B102DEC3CEC4CEC94
:101980005DE30E94F210D8CF8551823020F710918C
:101990005203612F70E0762F662766277F7780914C
:1019A0005303682B90E080E00E943B102DEC3CEC50
:1019B0004CEC5DE30E94F21031C16091520370E083
:1019C00090E080E00E943B106B017C01109153037A
:1019D00017FF0AC0AC019B0160E070E080E89FEB5C
:1019E0000E94280F6B017C011F70612F70E090E056
:1019F00080E00E943D102DEC3CEC4CEC5DE30E943D
:101A0000F210A70196010E94290F6B017C01A5012C
:101A10009401C501B4010E945F118111D8C0A701D2
:101A20009601C701B6010E945F118111D0C00E94CA
:101A30006D0E20E030E04CE052E4C701B6010E9498
:101A4000ED1018160CF0F3C060E087E00E94D3019F
:101A500060E089E00E94D30161E088E00E94D30148
:101A60000E944E0760E080E00E941B076BE571E07A
:101A700083E693E00E94FB0561E085E00E941B077E
:101A800022E0B701A60183E693E00E94FD0561E034
:101A900089E00E941B0760E771E083E693E00E9403
:101AA000FB0560ED77E080E090E00E9475020E9407
:101AB0004E0760E080E00E941B0763E771E083E669
:101AC00093E00E94FB0561E085E00E941B0765E84A
:101AD00071E083E693E00E94FB0561E089E00E94EB
:101AE0001B076AE871E083E693E00E94FB0560ED66
:101AF00077E080E090E00E9475028BE491E00E9424
:101B0000E8058DE891E00E94E80540919702509128
:101B100098026091990270919A0222E083EA92E021
:101B20000E94FD056EE971E083EA92E00E94FB05E8
:101B300081EB91E00E94E80540919B0250919C024C
:101B400060919D0270919E0222E083EA92E00E94E1
:101B5000FD056FEB71E083EA92E00E94FB0581ECEA
:101B600091E00E94E80540919F025091A00260918F
:101B7000A1027091A20222E083EA92E00E94FD0598
:101B80006FEC71E083EA92E00E94FB058BE591E047
:101B90000E94E80522E0B701A60183EA92E00E94D4
:101BA000FD0560E771E083EA92E00E94FB0583E7B0
:101BB00091E00E94E80565E871E083EA92E00E9406
:101BC000FB056AE871E083EA92E00E94FB0520973A
:101BD00009F446CD0E943001882309F441CD0E94CA
:101BE00000003ECD10915203612F70E090E080E044
:101BF0000E943B106B017C01609153036F7070E099
:101C000090E080E00E943D102DEC3CEC4CEC5DE35C
:101C10000E94F210A70196010E94290F6B017C011E
:101C200017FFF5CEF7FAF094F7F8F094F0CE61E0F4
:101C300087E00E94D30161E089E00E94D30160E067
:101C40000CCF8F929F92AF92BF92CF92DF92EF9282
:101C5000FF92CF93DF93EC01688179818A819B8128
:101C6000611571058105910521F464E279ED8BE53B
:101C700097E02DE133EF41E050E00E94C50E4901AD
:101C80005A019B01AC01A7EAB1E40E94E40E6B018A
:101C90007C01ACEEB4EFA50194010E94F20EC60ED9
:101CA000D71EE81EF91EF7FE06C081E0C81AD1084B
:101CB000E10880E8F80AC882D982EA82FB82C7017B
:101CC000B6019F77DF91CF91FF90EF90DF90CF909B
:101CD000BF90AF909F908F9008958F929F92AF92F8
:101CE000BF92CF92DF92EF92FF92609100017091CC
:101CF0000101809102019091030161157105810537
:101D0000910521F464E279ED8BE597E02DE133EF65
:101D100041E050E00E94C50E49015A019B01AC010F
:101D2000A7EAB1E40E94E40E6B017C01ACEEB4EFD3
:101D3000A50194010E94F20EC60ED71EE81EF91EE0
:101D4000F7FE06C081E0C81AD108E10880E8F80A69
:101D5000C0920001D0920101E0920201F0920301D1
:101D6000C701B6019F77FF90EF90DF90CF90BF90B3
:101D7000AF909F908F900895609300017093010140
:101D800080930201909303010895052E97FB1EF4A2
:101D900000940E94DC0E57FD07D00E94F70E07FC4E
:101DA00003D04EF40C94DC0E50954095309521955F
:101DB0003F4F4F4F5F4F0895909580957095619577
:101DC0007F4F8F4F9F4F08950E94190FA59F900D31
:101DD000B49F900DA49F800D911D11240895B7FF0D
:101DE0000C94E40E0E94E40E821B930B0895A1E272
:101DF0001A2EAA1BBB1BFD010DC0AA1FBB1FEE1F85
:101E0000FF1FA217B307E407F50720F0A21BB30BCF
:101E1000E40BF50B661F771F881F991F1A9469F74B
:101E200060957095809590959B01AC01BD01CF01A7
:101E30000895A29FB001B39FC001A39F700D811DA3
:101E40001124911DB29F700D811D1124911D0895C3
:101E50005058BB27AA270E94400F0C94B3100E9431
:101E6000A51038F00E94AC1020F039F49F3F19F40F
:101E700026F40C94A2100EF4E095E7FB0C949C1051
:101E8000E92F0E94C41058F3BA176207730784073A
:101E9000950720F079F4A6F50C94E6100EF4E09581
:101EA0000B2EBA2FA02D0B01B90190010C01CA0114
:101EB000A0011124FF27591B99F0593F50F4503EBF
:101EC00068F11A16F040A22F232F342F4427585FB1
:101ED000F3CF469537952795A795F0405395C9F7C9
:101EE0007EF41F16BA0B620B730B840BBAF0915081
:101EF000A1F0FF0FBB1F661F771F881FC2F70EC020
:101F0000BA0F621F731F841F48F4879577956795F2
:101F1000B795F7959E3F08F0B0CF9395880F08F0DE
:101F20009927EE0F9795879508950E94781008F4E9
:101F300081E008950E94AE0F0C94B3100E94AC1083
:101F400058F00E94A51040F029F45F3F29F00C944E
:101F50009C1051110C94E7100C94A2100E94C41014
:101F600068F39923B1F3552391F3951B550BBB27C8
:101F7000AA2762177307840738F09F5F5F4F220F0D
:101F8000331F441FAA1FA9F335D00E2E3AF0E0E804
:101F900032D091505040E695001CCAF72BD0FE2F4E
:101FA00029D0660F771F881FBB1F261737074807E2
:101FB000AB07B0E809F0BB0B802DBF01FF2793589A
:101FC0005F4F3AF09E3F510578F00C949C100C94B2
:101FD000E7105F3FE4F3983ED4F3869577956795D5
:101FE000B795F7959F5FC9F7880F911D96958795CF
:101FF00097F90895E1E0660F771F881FBB1F6217EE
:1020000073078407BA0720F0621B730B840BBA0BAB
:10201000EE1F88F7E09508950E94CC1088F09F5736
:1020200098F0B92F9927B751B0F0E1F0660F771FFC
:10203000881F991F1AF0BA95C9F714C0B13091F0F2
:102040000E94E610B1E008950C94E610672F782FF7
:102050008827B85F39F0B93FCCF3869577956795B7
:10206000B395D9F73EF490958095709561957F4F23
:102070008F4F9F4F0895E89409C097FB3EF49095C9
:102080008095709561957F4F8F4F9F4F9923A9F051
:10209000F92F96E9BB279395F695879577956795E0
:1020A000B795F111F8CFFAF4BB0F11F460FF1BC024
:1020B0006F5F7F4F8F4F9F4F16C0882311F096E9B7
:1020C00011C0772321F09EE8872F762F05C0662365
:1020D00071F096E8862F70E060E02AF09A95660F1E
:1020E000771F881FDAF7880F9695879597F90895D7
:1020F000990F0008550FAA0BE0E8FEEF1616170619
:10210000E807F907C0F012161306E407F50798F080
:10211000621B730B840B950B39F40A2661F0232B99
:10212000242B252B21F408950A2609F4A140A69515
:102130008FEF811D811D089597F99F6780E870E0FA
:1021400060E008959FEF80EC089500240A9416162D
:10215000170618060906089500240A941216130695
:10216000140605060895092E0394000C11F4882323
:1021700052F0BB0F40F4BF2B11F460FF04C06F5F3F
:102180007F4F8F4F9F4F089557FD9058440F551F15
:1021900059F05F3F71F04795880F97FB991F61F0E9
:1021A0009F3F79F087950895121613061406551F60
:1021B000F2CF4695F1DF08C0161617061806991FCC
:1021C000F1CF86957105610508940895E894BB27C1
:1021D00066277727CB0197F908950E94781008F4B5
:1021E0008FEF08950E9405110C94B3100E94A51062
:1021F00038F00E94AC1020F0952311F00C949C1044
:102200000C94A21011240C94E7100E94C41070F3D7
:10221000959FC1F3950F50E0551F629FF001729F8B
:10222000BB27F00DB11D639FAA27F00DB11DAA1F9A
:10223000649F6627B00DA11D661F829F2227B00DE7
:10224000A11D621F739FB00DA11D621F839FA00D72
:10225000611D221F749F3327A00D611D231F849FC2
:10226000600D211D822F762F6A2F11249F57504019
:102270009AF0F1F088234AF0EE0FFF1FBB1F661F94
:10228000771F881F91505040A9F79E3F510580F05D
:102290000C949C100C94E7105F3FE4F3983ED4F349
:1022A000869577956795B795F795E7959F5FC1F701
:1022B000FE2B880F911D9695879597F908950E949A
:1022C0007810880B990B0895EE0FFF1F0590F4917D
:1022D000E02D0994F894FFCF0100000000004000B9
:1022E00014005400000000006601C600F300B301B2
:1022F00024010201160100000000740447048A054D
:102300001D0440042D041E04000000005907C600EF
:102310008A05B6030D0A006E616E00696E66006F75
:10232000766600202020212145562D537461746566
:10233000212100202054656D70657261747572658D
:1023400020200032372E350060430020204E65618A
:102350007265737420432E20532E202000312E39B5
:1023600032006B6D002020426174746572792050D8
:10237000657263202000250020204B4D2043616EB4
:1023800020476F2020004B6D0020202020566F6CCE
:10239000746167652020005600202020204375725C
:0A23A00072656E74202000410000F9
:107E0000112484B714BE81FFF0D085E080938100F7
:107E100082E08093C00088E18093C10086E0809377
:107E2000C20080E18093C4008EE0C9D0259A86E02C
:107E300020E33CEF91E0309385002093840096BBD3
:107E4000B09BFECF1D9AA8958150A9F7CC24DD24C4
:107E500088248394B5E0AB2EA1E19A2EF3E0BF2EE7
:107E6000A2D0813461F49FD0082FAFD0023811F036
:107E7000013811F484E001C083E08DD089C08234E0
:107E800011F484E103C0853419F485E0A6D080C0E4
:107E9000853579F488D0E82EFF2485D0082F10E0AE
:107EA000102F00270E291F29000F111F8ED06801E7
:107EB0006FC0863521F484E090D080E0DECF843638
:107EC00009F040C070D06FD0082F6DD080E0C81688
:107ED00080E7D80618F4F601B7BEE895C0E0D1E017
:107EE00062D089930C17E1F7F0E0CF16F0E7DF06D8
:107EF00018F0F601B7BEE89568D007B600FCFDCFD4
:107F0000A601A0E0B1E02C9130E011968C91119780
:107F100090E0982F8827822B932B1296FA010C0160
:107F200087BEE89511244E5F5F4FF1E0A038BF0790
:107F300051F7F601A7BEE89507B600FCFDCF97BE46
:107F4000E89526C08437B1F42ED02DD0F82E2BD052
:107F50003CD0F601EF2C8F010F5F1F4F84911BD097
:107F6000EA94F801C1F70894C11CD11CFA94CF0C13
:107F7000D11C0EC0853739F428D08EE10CD085E9AC
:107F80000AD08FE07ACF813511F488E018D01DD067
:107F900080E101D065CF982F8091C00085FFFCCF94
:107FA0009093C60008958091C00087FFFCCF809118
:107FB000C00084FD01C0A8958091C6000895E0E648
:107FC000F0E098E1908380830895EDDF803219F02E
:107FD00088E0F5DFFFCF84E1DECF1F93182FE3DFCA
:107FE0001150E9F7F2DF1F91089580E0E8DFEE27F6
:047FF000FF270994CA
:027FFE00040479
:00000001FF
